{
  "_format": "hh-sol-artifact-1",
  "contractName": "BlockFund",
  "sourceName": "contracts/blockfund.sol",
  "abi": [
    {
      "inputs": [],
      "stateMutability": "nonpayable",
      "type": "constructor"
    },
    {
      "anonymous": false,
      "inputs": [
        {
          "indexed": false,
          "internalType": "uint256",
          "name": "campaignId",
          "type": "uint256"
        },
        {
          "indexed": false,
          "internalType": "address",
          "name": "creator",
          "type": "address"
        }
      ],
      "name": "CampaignCreated",
      "type": "event"
    },
    {
      "anonymous": false,
      "inputs": [
        {
          "indexed": false,
          "internalType": "uint256",
          "name": "campaignId",
          "type": "uint256"
        },
        {
          "indexed": false,
          "internalType": "enum BlockFund.Status",
          "name": "newStatus",
          "type": "uint8"
        }
      ],
      "name": "CampaignStatusChanged",
      "type": "event"
    },
    {
      "anonymous": false,
      "inputs": [
        {
          "indexed": false,
          "internalType": "uint256",
          "name": "campaignId",
          "type": "uint256"
        },
        {
          "indexed": false,
          "internalType": "address",
          "name": "funder",
          "type": "address"
        },
        {
          "indexed": false,
          "internalType": "uint256",
          "name": "amount",
          "type": "uint256"
        }
      ],
      "name": "Funded",
      "type": "event"
    },
    {
      "anonymous": false,
      "inputs": [],
      "name": "Paused",
      "type": "event"
    },
    {
      "anonymous": false,
      "inputs": [
        {
          "indexed": false,
          "internalType": "uint256",
          "name": "campaignId",
          "type": "uint256"
        },
        {
          "indexed": false,
          "internalType": "address",
          "name": "contributor",
          "type": "address"
        },
        {
          "indexed": false,
          "internalType": "uint256",
          "name": "amount",
          "type": "uint256"
        }
      ],
      "name": "RefundClaimed",
      "type": "event"
    },
    {
      "anonymous": false,
      "inputs": [],
      "name": "Unpaused",
      "type": "event"
    },
    {
      "inputs": [
        {
          "internalType": "uint256",
          "name": "",
          "type": "uint256"
        }
      ],
      "name": "campaigns",
      "outputs": [
        {
          "internalType": "address payable",
          "name": "creator",
          "type": "address"
        },
        {
          "internalType": "string",
          "name": "title",
          "type": "string"
        },
        {
          "internalType": "string",
          "name": "description",
          "type": "string"
        },
        {
          "internalType": "uint256",
          "name": "goal",
          "type": "uint256"
        },
        {
          "internalType": "uint256",
          "name": "raised",
          "type": "uint256"
        },
        {
          "internalType": "uint256",
          "name": "deadline",
          "type": "uint256"
        },
        {
          "internalType": "enum BlockFund.Status",
          "name": "status",
          "type": "uint8"
        },
        {
          "internalType": "bool",
          "name": "completed",
          "type": "bool"
        }
      ],
      "stateMutability": "view",
      "type": "function"
    },
    {
      "inputs": [
        {
          "internalType": "uint256",
          "name": "_id",
          "type": "uint256"
        }
      ],
      "name": "checkCampaignStatus",
      "outputs": [],
      "stateMutability": "nonpayable",
      "type": "function"
    },
    {
      "inputs": [
        {
          "internalType": "uint256",
          "name": "_id",
          "type": "uint256"
        }
      ],
      "name": "claimRefund",
      "outputs": [],
      "stateMutability": "nonpayable",
      "type": "function"
    },
    {
      "inputs": [
        {
          "internalType": "uint256",
          "name": "",
          "type": "uint256"
        },
        {
          "internalType": "address",
          "name": "",
          "type": "address"
        }
      ],
      "name": "contributions",
      "outputs": [
        {
          "internalType": "uint256",
          "name": "",
          "type": "uint256"
        }
      ],
      "stateMutability": "view",
      "type": "function"
    },
    {
      "inputs": [
        {
          "internalType": "uint256",
          "name": "",
          "type": "uint256"
        },
        {
          "internalType": "uint256",
          "name": "",
          "type": "uint256"
        }
      ],
      "name": "contributors",
      "outputs": [
        {
          "internalType": "address",
          "name": "",
          "type": "address"
        }
      ],
      "stateMutability": "view",
      "type": "function"
    },
    {
      "inputs": [
        {
          "internalType": "string",
          "name": "_title",
          "type": "string"
        },
        {
          "internalType": "string",
          "name": "_description",
          "type": "string"
        },
        {
          "internalType": "uint256",
          "name": "_goal",
          "type": "uint256"
        },
        {
          "internalType": "uint256",
          "name": "_duration",
          "type": "uint256"
        }
      ],
      "name": "createCampaign",
      "outputs": [],
      "stateMutability": "nonpayable",
      "type": "function"
    },
    {
      "inputs": [],
      "name": "feeRecipient",
      "outputs": [
        {
          "internalType": "address payable",
          "name": "",
          "type": "address"
        }
      ],
      "stateMutability": "view",
      "type": "function"
    },
    {
      "inputs": [
        {
          "internalType": "uint256",
          "name": "_id",
          "type": "uint256"
        }
      ],
      "name": "fundCampaign",
      "outputs": [],
      "stateMutability": "payable",
      "type": "function"
    },
    {
      "inputs": [
        {
          "internalType": "uint256",
          "name": "_id",
          "type": "uint256"
        }
      ],
      "name": "getCampaign",
      "outputs": [
        {
          "components": [
            {
              "internalType": "address payable",
              "name": "creator",
              "type": "address"
            },
            {
              "internalType": "string",
              "name": "title",
              "type": "string"
            },
            {
              "internalType": "string",
              "name": "description",
              "type": "string"
            },
            {
              "internalType": "uint256",
              "name": "goal",
              "type": "uint256"
            },
            {
              "internalType": "uint256",
              "name": "raised",
              "type": "uint256"
            },
            {
              "internalType": "uint256",
              "name": "deadline",
              "type": "uint256"
            },
            {
              "internalType": "enum BlockFund.Status",
              "name": "status",
              "type": "uint8"
            },
            {
              "internalType": "bool",
              "name": "completed",
              "type": "bool"
            }
          ],
          "internalType": "struct BlockFund.Campaign",
          "name": "",
          "type": "tuple"
        }
      ],
      "stateMutability": "view",
      "type": "function"
    },
    {
      "inputs": [
        {
          "internalType": "uint256",
          "name": "_id",
          "type": "uint256"
        },
        {
          "internalType": "address",
          "name": "_contributor",
          "type": "address"
        }
      ],
      "name": "getContribution",
      "outputs": [
        {
          "internalType": "uint256",
          "name": "",
          "type": "uint256"
        }
      ],
      "stateMutability": "view",
      "type": "function"
    },
    {
      "inputs": [
        {
          "internalType": "uint256",
          "name": "_id",
          "type": "uint256"
        }
      ],
      "name": "getContributors",
      "outputs": [
        {
          "internalType": "address[]",
          "name": "",
          "type": "address[]"
        }
      ],
      "stateMutability": "view",
      "type": "function"
    },
    {
      "inputs": [],
      "name": "owner",
      "outputs": [
        {
          "internalType": "address",
          "name": "",
          "type": "address"
        }
      ],
      "stateMutability": "view",
      "type": "function"
    },
    {
      "inputs": [],
      "name": "pause",
      "outputs": [],
      "stateMutability": "nonpayable",
      "type": "function"
    },
    {
      "inputs": [],
      "name": "paused",
      "outputs": [
        {
          "internalType": "bool",
          "name": "",
          "type": "bool"
        }
      ],
      "stateMutability": "view",
      "type": "function"
    },
    {
      "inputs": [],
      "name": "platformFee",
      "outputs": [
        {
          "internalType": "uint256",
          "name": "",
          "type": "uint256"
        }
      ],
      "stateMutability": "view",
      "type": "function"
    },
    {
      "inputs": [
        {
          "internalType": "address payable",
          "name": "_recipient",
          "type": "address"
        }
      ],
      "name": "setFeeRecipient",
      "outputs": [],
      "stateMutability": "nonpayable",
      "type": "function"
    },
    {
      "inputs": [
        {
          "internalType": "uint256",
          "name": "_fee",
          "type": "uint256"
        }
      ],
      "name": "setPlatformFee",
      "outputs": [],
      "stateMutability": "nonpayable",
      "type": "function"
    },
    {
      "inputs": [],
      "name": "unpause",
      "outputs": [],
      "stateMutability": "nonpayable",
      "type": "function"
    },
    {
      "inputs": [
        {
          "internalType": "uint256",
          "name": "_id",
          "type": "uint256"
        }
      ],
      "name": "withdraw",
      "outputs": [],
      "stateMutability": "nonpayable",
      "type": "function"
    }
  ],
  "bytecode": "0x608060405260c8600455348015610014575f80fd5b5060038054600580546001600160a01b031916610100338102610100600160a81b031985168117919091046001600160a01b03169190911790915560ff19166001600160a81b03199091161790556119c08061006f5f395ff3fe608060405260043610610110575f3560e01c80635598f8cc1161009d5780638da5cb5b116100625780638da5cb5b1461032657806392bd38bc1461034a578063a318f2691461035d578063e081dbf91461037c578063e74b981b1461039b575f80fd5b80635598f8cc1461027f5780635b7baf64146102ab5780635c975abb146102ca57806370041d10146102f35780638456cb5914610312575f80fd5b80633c1ab00f116100e35780633c1ab00f146101b35780633d891f59146101df5780633f4ba83a14610215578063469048401461022957806354346b6614610260575f80fd5b806312e8e2c314610114578063141961bc1461013557806326232a2e146101715780632e1a7d4d14610194575b5f80fd5b34801561011f575f80fd5b5061013361012e3660046113ec565b6103ba565b005b348015610140575f80fd5b5061015461014f3660046113ec565b610438565b60405161016898979695949392919061147a565b60405180910390f35b34801561017c575f80fd5b5061018660045481565b604051908152602001610168565b34801561019f575f80fd5b506101336101ae3660046113ec565b6105a6565b3480156101be575f80fd5b506101d26101cd3660046113ec565b610824565b60405161016891906114e9565b3480156101ea575f80fd5b506101866101f936600461154c565b600260209081525f928352604080842090915290825290205481565b348015610220575f80fd5b506101336108ae565b348015610234575f80fd5b50600554610248906001600160a01b031681565b6040516001600160a01b039091168152602001610168565b34801561026b575f80fd5b5061024861027a36600461157a565b610911565b34801561028a575f80fd5b5061029e6102993660046113ec565b610945565b604051610168919061159a565b3480156102b6575f80fd5b506101336102c53660046113ec565b610b3b565b3480156102d5575f80fd5b506003546102e39060ff1681565b6040519015158152602001610168565b3480156102fe575f80fd5b5061013361030d3660046113ec565b610d12565b34801561031d575f80fd5b50610133610dfc565b348015610331575f80fd5b506003546102489061010090046001600160a01b031681565b6101336103583660046113ec565b610e62565b348015610368575f80fd5b506101336103773660046116d0565b6110a5565b348015610387575f80fd5b5061018661039636600461154c565b6112af565b3480156103a6575f80fd5b506101336103b536600461173f565b6112fa565b60035461010090046001600160a01b031633146103f25760405162461bcd60e51b81526004016103e990611761565b60405180910390fd5b6103e88111156104335760405162461bcd60e51b815260206004820152600c60248201526b08ccaca40e8dede40d0d2ced60a31b60448201526064016103e9565b600455565b5f8181548110610446575f80fd5b5f918252602090912060079091020180546001820180546001600160a01b0390921693509061047490611784565b80601f01602080910402602001604051908101604052809291908181526020018280546104a090611784565b80156104eb5780601f106104c2576101008083540402835291602001916104eb565b820191905f5260205f20905b8154815290600101906020018083116104ce57829003601f168201915b50505050509080600201805461050090611784565b80601f016020809104026020016040519081016040528092919081815260200182805461052c90611784565b80156105775780601f1061054e57610100808354040283529160200191610577565b820191905f5260205f20905b81548152906001019060200180831161055a57829003601f168201915b505050506003830154600484015460058501546006909501549394919390925060ff8082169161010090041688565b5f5481106105c65760405162461bcd60e51b81526004016103e9906117bc565b5f8082815481106105d9576105d96117e9565b5f918252602090912060079091020180549091506001600160a01b031633146106325760405162461bcd60e51b815260206004820152600b60248201526a2737ba1031b932b0ba37b960a91b60448201526064016103e9565b80600501544210156106795760405162461bcd60e51b815260206004820152601060248201526f139bdd08199a5b9a5cda1959081e595d60821b60448201526064016103e9565b6001600682015460ff16600381111561069457610694611446565b146106e15760405162461bcd60e51b815260206004820152601760248201527f43616d706169676e206e6f74207375636365737366756c00000000000000000060448201526064016103e9565b6006810154610100900460ff161561072f5760405162461bcd60e51b815260206004820152601160248201527020b63932b0b23c903bb4ba34323930bbb760791b60448201526064016103e9565b60068101805461ffff19166101031790556040517f7e5e6bfcab605d9254dbb5c3b4c8bd65ee4705bb30b1fc434d9651d24d368f36906107739084906003906117fd565b60405180910390a15f61271060045483600401546107919190611825565b61079b919061183c565b90505f8183600401546107ae919061185b565b6005546040519192506001600160a01b03169083156108fc029084905f818181858888f193505050501580156107e6573d5f803e3d5ffd5b5082546040516001600160a01b039091169082156108fc029083905f818181858888f1935050505015801561081d573d5f803e3d5ffd5b5050505050565b5f5460609082106108475760405162461bcd60e51b81526004016103e9906117bc565b5f82815260016020908152604091829020805483518184028101840190945280845290918301828280156108a257602002820191905f5260205f20905b81546001600160a01b03168152600190910190602001808311610884575b50505050509050919050565b60035461010090046001600160a01b031633146108dd5760405162461bcd60e51b81526004016103e990611761565b6003805460ff191690556040517fa45f47fdea8a1efdd9029a5691c7f759c32b7c698632b563573e155625d16933905f90a1565b6001602052815f5260405f20818154811061092a575f80fd5b5f918252602090912001546001600160a01b03169150829050565b61094d611393565b5f54821061096d5760405162461bcd60e51b81526004016103e9906117bc565b5f828154811061097f5761097f6117e9565b5f91825260209182902060408051610100810190915260079092020180546001600160a01b0316825260018101805492939192918401916109bf90611784565b80601f01602080910402602001604051908101604052809291908181526020018280546109eb90611784565b8015610a365780601f10610a0d57610100808354040283529160200191610a36565b820191905f5260205f20905b815481529060010190602001808311610a1957829003601f168201915b50505050508152602001600282018054610a4f90611784565b80601f0160208091040260200160405190810160405280929190818152602001828054610a7b90611784565b8015610ac65780601f10610a9d57610100808354040283529160200191610ac6565b820191905f5260205f20905b815481529060010190602001808311610aa957829003601f168201915b505050918352505060038281015460208301526004830154604083015260058301546060830152600683015460809092019160ff1690811115610b0b57610b0b611446565b6003811115610b1c57610b1c611446565b815260069190910154610100900460ff16151560209091015292915050565b5f548110610b5b5760405162461bcd60e51b81526004016103e9906117bc565b5f808281548110610b6e57610b6e6117e9565b905f5260205f20906007020190508060050154421015610bc55760405162461bcd60e51b815260206004820152601260248201527110d85b5c185a59db881b9bdd08195b99195960721b60448201526064016103e9565b6002600682015460ff166003811115610be057610be0611446565b14610c235760405162461bcd60e51b815260206004820152601360248201527210d85b5c185a59db881b9bdd0819985a5b1959606a1b60448201526064016103e9565b5f82815260026020908152604080832033845290915290205480610c895760405162461bcd60e51b815260206004820152601a60248201527f4e6f20636f6e747269627574696f6e7320746f20726566756e6400000000000060448201526064016103e9565b5f83815260026020908152604080832033808552925280832083905551909183156108fc02918491818181858888f19350505050158015610ccc573d5f803e3d5ffd5b50604080518481523360208201529081018290527ff3f402280ef0a7905e124aa621b65eaeb2725c343e8b36d398ed78c29daf285c9060600160405180910390a1505050565b5f548110610d325760405162461bcd60e51b81526004016103e9906117bc565b5f808281548110610d4557610d456117e9565b905f5260205f209060070201905080600501544210158015610d7e57505f600682015460ff166003811115610d7c57610d7c611446565b145b15610df8578060030154816004015410610da65760068101805460ff19166001179055610db6565b60068101805460ff191660021790555b60068101546040517f7e5e6bfcab605d9254dbb5c3b4c8bd65ee4705bb30b1fc434d9651d24d368f3691610def91859160ff16906117fd565b60405180910390a15b5050565b60035461010090046001600160a01b03163314610e2b5760405162461bcd60e51b81526004016103e990611761565b6003805460ff191660011790556040517f9e87fac88ff661f02d44f95383c817fece4bce600a3dab7a54406878b965e752905f90a1565b60035460ff1615610eaa5760405162461bcd60e51b815260206004820152601260248201527110dbdb9d1c9858dd081a5cc81c185d5cd95960721b60448201526064016103e9565b5f548110610eca5760405162461bcd60e51b81526004016103e9906117bc565b5f808281548110610edd57610edd6117e9565b5f918252602082206007909102019150600682015460ff166003811115610f0657610f06611446565b14610f495760405162461bcd60e51b815260206004820152601360248201527243616d706169676e206e6f742061637469766560681b60448201526064016103e9565b80600501544210610f8f5760405162461bcd60e51b815260206004820152601060248201526f10d85b5c185a59db88195e1c1a5c995960821b60448201526064016103e9565b5f3411610fd55760405162461bcd60e51b815260206004820152601460248201527326bab9ba1039b2b7321039b7b6b29022ba3432b960611b60448201526064016103e9565b5f8281526002602090815260408083203384529091528120549003611021575f82815260016020818152604083208054928301815583529091200180546001600160a01b031916331790555b34816004015f828254611034919061186e565b90915550505f8281526002602090815260408083203384529091528120805434929061106190849061186e565b90915550506040805183815233602082015234918101919091527f38c48552690c96ec2872092ac1db6c19fb59f5a8c5b49bbf41ed4886d0ca692690606001610def565b5f82116110f45760405162461bcd60e51b815260206004820152601b60248201527f476f616c206d7573742062652067726561746572207468616e2030000000000060448201526064016103e9565b5f81116111435760405162461bcd60e51b815260206004820152601f60248201527f4475726174696f6e206d7573742062652067726561746572207468616e20300060448201526064016103e9565b5f604051806101000160405280336001600160a01b031681526020018681526020018581526020018481526020015f81526020018342611183919061186e565b81526020015f81525f602091820181905283546001808201865594825290829020835160079092020180546001600160a01b0319166001600160a01b039092169190911781559082015191929091908201906111df90826118ca565b50604082015160028201906111f490826118ca565b50606082015181600301556080820151816004015560a0820151816005015560c0820151816006015f6101000a81548160ff0219169083600381111561123c5761123c611446565b021790555060e09190910151600690910180549115156101000261ff00199092169190911790555f547f633109eec20320eded000fc1e2634211aa7e92ba3f5b15faf6dcdafca05094e4906112939060019061185b565b604080519182523360208301520160405180910390a150505050565b5f805483106112d05760405162461bcd60e51b81526004016103e9906117bc565b505f8281526002602090815260408083206001600160a01b03851684529091529020545b92915050565b60035461010090046001600160a01b031633146113295760405162461bcd60e51b81526004016103e990611761565b6001600160a01b0381166113715760405162461bcd60e51b815260206004820152600f60248201526e496e76616c6964206164647265737360881b60448201526064016103e9565b600580546001600160a01b0319166001600160a01b0392909216919091179055565b6040518061010001604052805f6001600160a01b0316815260200160608152602001606081526020015f81526020015f81526020015f81526020015f60038111156113e0576113e0611446565b81525f60209091015290565b5f602082840312156113fc575f80fd5b5035919050565b5f81518084525f5b818110156114275760208185018101518683018201520161140b565b505f602082860101526020601f19601f83011685010191505092915050565b634e487b7160e01b5f52602160045260245ffd5b6004811061147657634e487b7160e01b5f52602160045260245ffd5b9052565b6001600160a01b0389168152610100602082018190525f9061149e8382018b611403565b905082810360408401526114b2818a611403565b9150508660608301528560808301528460a08301526114d460c083018561145a565b82151560e08301529998505050505050505050565b602080825282518282018190525f9190848201906040850190845b818110156115295783516001600160a01b031683529284019291840191600101611504565b50909695505050505050565b6001600160a01b0381168114611549575f80fd5b50565b5f806040838503121561155d575f80fd5b82359150602083013561156f81611535565b809150509250929050565b5f806040838503121561158b575f80fd5b50508035926020909101359150565b602080825282516001600160a01b031682820152820151610100604083018190525f91906115cc610120850183611403565b91506040850151601f198584030160608601526115e98382611403565b92505060608501516080850152608085015160a085015260a085015160c085015260c085015161161c60e086018261145a565b5060e0850151801515858301525090949350505050565b634e487b7160e01b5f52604160045260245ffd5b5f82601f830112611656575f80fd5b813567ffffffffffffffff8082111561167157611671611633565b604051601f8301601f19908116603f0116810190828211818310171561169957611699611633565b816040528381528660208588010111156116b1575f80fd5b836020870160208301375f602085830101528094505050505092915050565b5f805f80608085870312156116e3575f80fd5b843567ffffffffffffffff808211156116fa575f80fd5b61170688838901611647565b9550602087013591508082111561171b575f80fd5b5061172887828801611647565b949794965050505060408301359260600135919050565b5f6020828403121561174f575f80fd5b813561175a81611535565b9392505050565b6020808252600990820152682737ba1037bbb732b960b91b604082015260600190565b600181811c9082168061179857607f821691505b6020821081036117b657634e487b7160e01b5f52602260045260245ffd5b50919050565b602080825260139082015272125b9d985b1a590818d85b5c185a59db881a59606a1b604082015260600190565b634e487b7160e01b5f52603260045260245ffd5b8281526040810161175a602083018461145a565b634e487b7160e01b5f52601160045260245ffd5b80820281158282048414176112f4576112f4611811565b5f8261185657634e487b7160e01b5f52601260045260245ffd5b500490565b818103818111156112f4576112f4611811565b808201808211156112f4576112f4611811565b601f8211156118c557805f5260205f20601f840160051c810160208510156118a65750805b601f840160051c820191505b8181101561081d575f81556001016118b2565b505050565b815167ffffffffffffffff8111156118e4576118e4611633565b6118f8816118f28454611784565b84611881565b602080601f83116001811461192b575f84156119145750858301515b5f19600386901b1c1916600185901b178555611982565b5f85815260208120601f198616915b828110156119595788860151825594840194600190910190840161193a565b508582101561197657878501515f19600388901b60f8161c191681555b505060018460011b0185555b50505050505056fea2646970667358221220e20f6aae63e641b92291564e0838a619cf20d06a37231b12a97a43075df2dc0264736f6c63430008180033",
  "linkReferences": {},
  "deployedLinkReferences": {}
}